:100000000C9434000C9446000C9446000C9446006A
:100010000C9446000C9446000C9446000C94460048
:100020000C9446000C9446000C9446000C94480036
:100030000C9446000C9446000C9446000C94460028
:100040000C9446000C9446000C9446000C94460018
:100050000C9446000C9446000C9446000C94460008
:100060000C9446000C94460011241FBECFEFD8E03C
:10007000DEBFCDBF21E0A0E0B1E001C01D92A43001
:10008000B207E1F70E9415010C9439010C940000AD
:100090001F920F920FB60F9211242F933F934F93FD
:1000A0005F938F939F9359B149B1447099B1907107
:1000B00089B1807220910201309103012230310513
:1000C00009F445C03CF42115310569F021303105B2
:1000D00019F1A0C02330310509F459C0243031058D
:1000E00009F474C097C0289829982A982B989923C6
:1000F00021F0811102C0442361F02091020130916E
:100100000301992309F482C0811180C041111CC0F0
:100110007DC021E030E07AC0289A299A2A982B984D
:10012000811102C0411110C02091020130910301E0
:10013000882309F46BC084E090E0909303018093DE
:10014000020181E090E03DC022E030E05FC02898ED
:1001500029982A982B9A882351F084E090E0909374
:1001600003018093020130930101209300012FEFDE
:1001700083E294EF215080409040E1F700C00000FE
:1001800083E090E0909303018093020143C028989C
:1001900029982A9A2B98811102C053FF0FC02091F1
:1001A000020130910301882389F184E090E090936B
:1001B00003018093020183E090E003C020E030E07F
:1001C00025C0909301018093000124C028982998AC
:1001D0002A982B98992339F0209100013091010140
:1001E0002130310531F02091020130910301992332
:1001F00069F080910001909101018230910511F424
:1002000022E030E0039711F423E030E03093030163
:10021000209302019F918F915F914F913F912F9178
:100220000F900FBE0F901F901895789480918100C9
:100230008C608093810080916F00826080936F005A
:1002400083E89EE190938900809388008AB18F6E45
:100250008AB98AB18F6D8AB98AB1876F8AB98AB132
:100260008B6F8AB9209A219A229A239A15B81BB8C3
:06027000FFCFF894FFCF60
:00000001FF
